:020000040800F2
:1000000078080020890100086B200008C51C000842
:1000100069200008D5030008CF2300080000000075
:1000200000000000000000000000000001210008A6
:100030000F040008000000009520000803210008BC
:10004000A3010008A3010008A3010008A301000800
:10005000A3010008A3010008A3010008A3010008F0
:10006000A3010008A3010008A3010008D9030008A8
:10007000A3010008A3010008A3010008A3010008D0
:10008000A3010008A3010008A3010008A3010008C0
:10009000A3010008A3010008A3010008A3010008B0
:1000A000A3010008A3010008A3010008A3010008A0
:1000B000A3010008A301000881210008A301000892
:1000C000A3010008A3010008A3010008A301000880
:1000D000A3010008A3010008A3010008A301000870
:1000E000A3010008A3010008A301000800F002F822
:1000F00000F03AF80AA090E8000C82448344AAF188
:100100000107DA4501D100F02FF8AFF2090EBAE885
:100110000F0013F0010F18BFFB1A43F0010318473B
:10012000E827000008280000103A24BF78C878C1EA
:10013000FAD8520724BF30C830C144BF04680C60ED
:10014000704700000023002400250026103A28BF35
:1001500078C1FBD8520728BF30C148BF0B60704739
:100160001FB51FBD10B510BD00F058F81146FFF7C0
:10017000F7FF02F03DF900F076F803B4FFF7F2FF65
:1001800003BC00F07DF8000009488047094800479B
:10019000FEE7FEE7FEE7FEE7FEE7FEE7FEE7FEE737
:1001A000FEE7FEE704480549054A064B7047000094
:1001B0007F210008ED000008780200207808002068
:1001C00078040020780400204FF0000200B51346A8
:1001D00094469646203922BFA0E80C50A0E80C5067
:1001E000B1F12001BFF4F7AF090728BFA0E80C5018
:1001F00048BF0CC05DF804EB890028BF40F8042B11
:1002000008BF704748BF20F8022B11F0804F18BF7D
:1002100000F8012B7047704770477047754600F033
:100220002BF8AE4605006946534620F00700854688
:1002300018B020B5FFF7B6FFBDE820404FF000062C
:100240004FF000074FF000084FF0000B21F00701BE
:10025000AC46ACE8C009ACE8C009ACE8C009ACE801
:10026000C0098D46704710B50446AFF300802046A4
:10027000BDE81040FFF781BF00487047140200201E
:1002800001491820ABBEFEE72600020070470000BF
:1002900070B5044600688168C943C90717D18168F1
:1002A00021F00101816000F0A9FC05460AE000BFD1
:1002B00000F0A4FC401B022804D920688068C043D9
:1002C000C00706D020688068C043C007F0D0002077
:1002D00070BDA06A40F01000A062E06A40F001002A
:1002E000E062012070BD10B50146406A826A12F0DA
:1002F000500F05D0006A026BBDE810400846104759
:10030000816A41F40071816201688968C1F34241E8
:1003100007290CD1017B51B9816A21F48071816276
:10032000816AC90403D4816A41F00101816200F04D
:10033000EFF810BD10B5406A816A41F0400181625A
:10034000C16A41F00401C16200F0E4F810BD10B5CB
:10035000406A00F0DEF810BDF8B5002604460096AD
:1003600000688168C943C9072DD0816841F0010147
:100370008160164816490068B0FBF1F000E0401EAD
:1003800000900028FBD100F039FC054616E000BFC4
:1003900000F034FC401B022810D920688068C0435C
:1003A000C0070BD0A06A40F01000A062E06A40F0E5
:1003B0000100E06284F824600120F8BD20688068B4
:1003C000C043C007E4D10020F8BD00002800002091
:1003D00040420F00FEE70000014800F0F7B90000BE
:1003E0005C00002030B590F840500124AC40C56B53
:1003F0006C60046863604368102B036803D09960E5
:100400000068C26030BD9A600068C16030BD70474E
:1004100072B6FEE7F8B50024009490F82420254633
:10042000012A12D0012280F824204A681F23072ABB
:100430000DD20668776B521E02EB820293409F43F7
:100440000B6893401F43776319E00220F8BD0668EC
:100450000D2A0AD2376BD21F02EB820293409F43D0
:100460000B6893401F43376309E0F76A0D3A02EBCC
:10047000820293409F430B6893401F43F7620A68D0
:10048000072306680A2A0AD3F7680A3A02EB4202EF
:1004900093409F438B6893401F43F76008E03769A0
:1004A00002EB420293409F438B6893401F433761A6
:1004B0000A68102A01D0112A20D1124B02689A42F0
:1004C00017D193681B0219D4936843F40003936017
:1004D0000968102912D10C490C4A0968B1FBF2F1E4
:1004E00001EB8101490000E0491E00910029FBD188
:1004F00004E0816A41F020018162012480F82450E7
:100500002046F8BD002401402800002040420F0092
:1005100070477047704700002DE9F0414FF0000729
:1005200004003D467ED0A06A002628B9E66284F821
:100530002460204600F07EF82046FFF7A9FEA16A5D
:10054000C90600D420B1A06A40F01000A06269E0A2
:10055000A16A21F4885141F00201A1626268E16957
:10056000237B0A4347EA43010A43A1684FF480779B
:10057000B94209D0012907D05FF0000194F814C0F6
:10058000BCF1010F02D00AE03946F7E7F3B1A36AE4
:1005900043F02003A362E36A43F00103E3622368AC
:1005A000D3F804C02CF4694C4CEA010CC3F804C025
:1005B00021688B68DFF870C003EA0C0313438B607B
:1005C000A168B9420BD0012909D00CE0DFF85CC06A
:1005D000A3690CEB43330B4343F40061DFE7218A4B
:1005E0000D05A5F580152168CB6A23F470032B4314
:1005F000CB62216889680E4B1940914208D1E662AE
:10060000A16A21F0020141F00101A162BDE8F0817F
:10061000A06A20F0020040F01000A062E06A40F002
:100620000100E0620120F1E7FDF7E1FF00E0FFFFDC
:10063000FE0E1FFF70B586B0002506460095019599
:10064000029503950068194988422DD11849886997
:1006500040F400708861886900F400700490886933
:1006600040F0040088618869694600F00400049045
:100670003C200090032001900E4800F0C9F90F4C77
:100680000D48C4E900058020C4E902504000206103
:100690008000C4E905052046E56100F041F908B194
:1006A000FFF7B6FE3462666206B070BD00240140FA
:1006B0000010024000080140080002405C000020D9
:1006C0002DE9F047894604463B4900683B4F0E1D23
:1006D0009046884201D0B84207D1306810F4702F9C
:1006E00003D001252846BDE8F08794F824000128AE
:1006F0000CD0012084F824002046FFF72DFE0500D1
:100700004FF0000004D084F82400EBE70220EAE771
:10071000A16A40F60162914341F48071A1622168AF
:10072000B94218D1326812F4702F14D0A16A41F482
:100730008011A1623168490505D5A16A21F40051F3
:1007400041F48051A162A16AC9040AD5E16A21F08D
:100750000601E16206E0A26A22F48012A262496800
:10076000E9E7E06284F82400216A15488862216A7A
:100770001448C862216A1448086321686FF00200B7
:1007800008602068816841F4807181602168434677
:100790004A464C31206A00F0F1F820688168C1F3C4
:1007A00042410729816803D041F48011816099E7B3
:1007B00041F4A001FAE700000024014000280140B4
:1007C000E70200084F030008350300082DE9F05F39
:1007D000C16B0C6801680B68D0F840C0042202FAB3
:1007E0000CF2494DDFF824A1494E4A4FDFF828B1F9
:1007F000DFF828E122422CD05A072AD50A6892064F
:1008000003D40A6822F004020A600168A94201D1F7
:10081000042219E0514501D1402215E0B14202D134
:100820004FF4806210E0B94202D14FF480420BE0F5
:10083000594502D14FF4802206E0714502D14FF4B0
:10084000800201E04FF080622F4908394A60C16A96
:100850003BE04FF0020808FA0CF818EA040F4FF0DA
:1008600000094FF0010235D05FEA837832D50B687A
:100870009B0605D40B6823F00A030B6080F8212047
:100880000168A94201D1022219E0514501D120227B
:1008900015E0B14202D14FF4007210E0B94202D12A
:1008A0004FF400520BE0594502D14FF4003206E0FC
:1008B000714502D14FF4001201E04FF0007212496D
:1008C00008394A6080F82090816A00291AD0BDE872
:1008D000F05F0847082505FA0CF5254212D01B07E2
:1008E00010D50B6823F00E030B6090F84010C36B1B
:1008F00002FA01F15960826380F8212080F820908B
:10090000016BE2E7BDE8F09F080002401C000240D6
:100910003000024044000240580002406C00024097
:1009200030B528B308C8134914221944B1FBF2F1B9
:100930008900C16310498163022141771A6843F637
:10094000F0718A43D0E900142143D0E902452C43D9
:1009500021430469214344692143846921431143AC
:10096000196000214163012242770177084630BDBA
:10097000012030BDF8FFFDBF0000024070B5044605
:1009800090F82000002501280CD0012084F82000D8
:1009900094F821600020012E06D084F82000022562
:1009A000284670BD022070BD022684F82160A06335
:1009B0002068066826F0010606602046FFF712FD53
:1009C000E06A00282068016802D041F00E0106E0CC
:1009D00021F0040101602068016841F00A01016012
:1009E0002068016841F001010160D9E770B5044653
:1009F00000F004F90546601C02D004480078044465
:100A000000F0FCF8401BA042FAD370BD1C0000208F
:100A10002DE9F84FDFF8B8910024A9F1040B234623
:100A20000F2709F1040AABF1040EC9E00125A54026
:100A30002A40AA427DD1674ED1F804C0ACEB06082B
:100A4000B44532D014DCBCF1030F3AD009DCBCF160
:100A5000000F2AD0BCF1010F1CD0BCF1020F31D124
:100A60001DE0BCF1110F17D0BCF1120F2AD119E013
:100A7000B8F5881F19D006DCB8F5803F15D0B8F559
:100A8000801F1FD111E0B8F5001F0ED0B8F5041F6C
:100A900018D10AE0CB6815E0CB681B1D12E0CB68CB
:100AA00008330FE0CB680C330CE08B682BB1012BC3
:100AB0004FF0080303D0456104E0042302E0056120
:100AC00000E00023FF2A01D8064601E000F10406F9
:100AD0004FEA840501D9A5F12005D6F8008007FA70
:100AE00005FC28EA0C0803FA05F548EA0508C6F8EB
:100AF00000804D68ED0062D5374DAE6946F00106C5
:100B0000AE61AD6924F0030605F001050095334D93
:100B100006EB050CDCF80850A607360F07FA06F8B6
:100B200025EA0805DFF8B880404503D14FF00008FA
:100B300017E044E0DFF8AC80404502D14FF00108F7
:100B40000FE0DFF8A480404502D14FF0020808E032
:100B5000DFF89880404502D14FF0030801E04FF0E4
:100B6000040808FA06F848EA0508CCF808804D6839
:100B7000D9F80060ED024D4601D5164300E09643DA
:100B80002E604D68DAF80060AD02554601D5164377
:100B900000E096432E604D68DBF80060AD035D46D3
:100BA00001D5164300E096432E604D68DEF80060E4
:100BB000ED03754601D5164300E096432E60641C94
:100BC0000D682A46E5407FF431AFBDE8F88F00009C
:100BD0000804014000001110001002400000014014
:100BE00000080140000C01400010014000140140C9
:100BF0000AB1016170470904FBE700000148806801
:100C0000704700001C00002070B5040025D094F847
:100C10003D00002520B984F83C50204600F0B8F88B
:100C2000242084F83D002068016821F00101016062
:100C30002068016841F4004101602068016821F4E6
:100C40000041016000F078FA4D4A6168914201D894
:100C50004C4900E04C49884201D2012070BD4B490B
:100C60002368B0FBF1F15E6826F03F060E435E603C
:100C70006368934206D94FF4967359434FF47A73DD
:100C8000B1FBF3F12368491C1E6A26F03F0631438D
:100C900019626168914210D84900401EB0FBF1F220
:100CA000521CC2F30B02042A01D2042022E0B0FB42
:100CB000F1F0401CC0F30B001CE0A268F2B301EBA2
:100CC000C10303EB0116431EB3FBF6F35B1C43F4B5
:100CD00080431B0549D092B301EBC10202EB011125
:100CE000401EB0FBF1F0401CC0F30B0040F480400C
:100CF00040F400402168CA694CF6FF739A431043E0
:100D0000C861D4E9071001432068026822F0C002DC
:100D100011430160D4E9030101432068826848F26D
:100D2000FF339A4311438160D4E9050108432168E8
:100D3000CA6822F0FF021043C86001E00EE016E02E
:100D40002068016841F0010101602564202084F8D9
:100D50003D00256384F83E50002070BD01EB410644
:100D6000431EB3FBF6F35B1CB3E70120C2E701EBC4
:100D70004101401EB0FBF1F0401CC0F30B00B7E78F
:100D8000A086010080841E0000093D0040420F0043
:100D900010B586B000210091019102910391006885
:100DA0001349884222D1134CA06940F00800A06189
:100DB000A069694600F0080004904FF4407000906C
:100DC00012200190032003900B48FFF721FE0B48EF
:100DD000416841F0E06141F002014160E06940F4A6
:100DE0000010E061E06900F40010049006B010BD4E
:100DF0000054004000100240000C0140000001407F
:100E00000248816802781144816070471C0000200C
:100E1000074810B5016841F010010160032000F09F
:100E20006DF80F2000F006F800F024F8002010BD47
:100E30000020024070B50D4D04464FF47A712878B9
:100E4000B1FBF0F00A490968B1FBF0F000F03AFBA1
:100E500048B9102C07D200222146501E00F02EF86F
:100E600000206C6070BD012070BD00001C000020DF
:100E700028000020094808B5816941F0010181611D
:100E8000816901F001010091C16941F08051C161A6
:100E9000C06900F08050009008BD000000100240C2
:100EA000002809DB00F01F02012191404009800069
:100EB00000F1E020C0F8001170470000F0B40E4BC4
:100EC0001B680C46C3F30223C3F10705042D00D9A8
:100ED0000425191D072901D2002300E0DB1E01268D
:100EE00006FA05F1491E214099409E40761E1640A3
:100EF0003143F0BC01F06CBA0CED00E0064900F0A3
:100F0000070208684FF6FF03184040EA0220034A30
:100F100010430860704700000CED00E00000FA0587
:100F20002DE9F84305460078354CC00754D0E069F8
:100F30000026C00008D4E06940F08050E061E0691C
:100F4000012600F0805000902E480168C90512D497
:100F50000168804641F480710160FFF74FFE07464B
:100F600005E000BFFFF74AFEC01B642823D8D8F86D
:100F70000000C005F6D5206A10F4407021D0A98881
:100F800001F4407181421CD0206A1F49012220F4E3
:100F900040700A6000220A602062C00711D0FFF78B
:100FA0002DFE074641F2883808E000BFFFF726FE15
:100FB000C11B414502D90320BDE8F883206A8007A0
:100FC000F4D5206A696820F44070084320621EB19D
:100FD000E06920F08050E0612878800705D56068DE
:100FE000A96820F44040084360602878C00605D511
:100FF0006068E96820F48000084360600020DBE757
:101000000010024000700040400442422DE9F047C9
:101010000F46050061D0434E306800F00700B8422B
:1010200009D2306820F0070038433060306800F0A3
:101030000700B84251D128683B4C810712D54007C0
:1010400003D5606840F4E06060602878000703D54D
:10105000606840F4605060606068A96820F0F0004B
:10106000084360602878C00728D06868012810D03D
:101070002168022810D0890700292EDA616821F042
:10108000030101436160FFF7B9FD804641F28839F1
:101090000DE021688903EFE78901EDE7FFF7AEFD79
:1010A000A0EB0801494502D90320BDE8F08760683C
:1010B000696800F00C00B0EB810FEFD1306800F0F0
:1010C0000700B8420BD9306820F007003843306081
:1010D000306800F00700B84201D00120E5E7287829
:1010E000400705D56068E96820F4E0600843606067
:1010F0002878000706D56068296920F4605040EA26
:10110000C100606000F028F86168084AC1F303116B
:10111000515CC8400649086006480068FFF78AFE2F
:101120000020C2E70020024000100240EE28000824
:101130002800002020000020044805490068496874
:10114000044AC1F30221515CC840704728000020C6
:1011500000100240FE2800080E4A51680E4801F0B7
:101160000C03042B11D0082B0FD10C48C1F383437F
:10117000C903C05C0AD55168084AC1F34041921EB8
:10118000515C054A5043B0FBF1F0704704494843B5
:10119000704700000010024000127A00DE280008AC
:1011A00000093D002DE9F84F040070D02078C04DB3
:1011B000C00749D06868C0F38100012807D068687B
:1011C000C0F38100022809D16868C00306D52868E9
:1011D000800339D560680028E7D035E06068B0F555
:1011E000803F0BD010B1B0F5A02F11D0286820F4AB
:1011F00080302860286820F4802002E0286840F4CD
:1012000080302860606890B1FFF7F8FC06460AE07D
:10121000286840F480202860F0E700BFFFF7EEFC6C
:10122000801B642873D828688003F7D50CE0FFF78B
:10123000E5FC064605E000BFFFF7E0FC801B6428E4
:10124000F0D828688003F7D420789A4E80074FF0B2
:1012500001094FF0000839D5686810F00C0F07D06D
:101260006868C0F38100022809D16868C00306D409
:101270002868800714D52069012808D110E020696A
:10128000B0B1C6F80090FFF7B9FC074605E00AE1E7
:10129000FFF7B4FCC01B0228C4D828688007F7D524
:1012A0002868616920F0F80040EAC10028600DE07C
:1012B000C6F80080FFF7A2FC074604E0FFF79EFC9B
:1012C000C01B022823D828688007F7D4207800079D
:1012D0002CD57948A169D9B1C0F80090FFF78EFCF0
:1012E000074604E0FFF78AFCC01B02280FD8686A93
:1012F0008007F7D571484FF4FA510068B0FBF1F060
:10130000009000BF0098411E0091FAD20EE080E0EC
:10131000C0F80080FFF772FC074604E0FFF76EFCA0
:10132000C01B022875D8686A8007F7D42078400768
:1013300060D5E8690027C00008D4E86940F0805013
:10134000E861E869012700F0805000905C4801687E
:10135000C90513D40168834641F480710160FFF729
:101360004DFC824606E000BFFFF748FCA0EB0A00F8
:1013700064284ED8DBF80000C005F5D5E0680128E8
:101380000AD008B1052813D0286A20F0010028628D
:10139000286A20F0040002E0286A40F00100286278
:1013A000E06841F2883B98B1FFF728FC82460BE0E9
:1013B000286A40F004002862EEE700BFFFF71EFC39
:1013C000A0EB0A0159455AD8286A8007F6D50CE0E7
:1013D000FFF714FC824605E0FFF710FCA0EB0A01C2
:1013E00059454CD8286A8007F6D41FB1E86920F027
:1013F0008050E861E06988B36968C1F3810102291E
:1014000044D00228C6F8608004D0FFF7F7FB0446FA
:1014100038E034E0FFF7F2FB074604E0FFF7EEFBAD
:10142000C01B02282BD828688001F7D4206AB0F5A9
:10143000803F05D16868A16820F4003008436860E7
:10144000D4E908010843696821F47411084368600D
:10145000C6F86090FFF7D2FB044606E025E000BF27
:10146000FFF7CCFB001B022809D828688001F7D5BC
:101470001BE000BFFFF7C2FB001B022802D90320BC
:10148000BDE8F88F28688001F4D40EE00128F7D079
:101490006868226A00F48031914204D1616A00F4E4
:1014A0007010884201D00120EAE70020E8E7000040
:1014B0000010024000004242800442422800002006
:1014C0000070004010B5401EB0F1807F01D30120B4
:1014D00010BD4FF0E02460610F21601700F078FF2D
:1014E0000020A06107202061002010BD70477047D8
:1014F00010B590F83C20012A22D0012280F83C202F
:10150000CA688C6822F4407222434C6822F48062DC
:1015100022430C6822F4006222430C6922F48052B8
:1015200022434C6922F400522243C969002322F469
:1015300080420A4301684A6480F83C30002010BDB4
:10154000022010BD70B590F83C20012A26D001245D
:1015500080F83C40022280F83D2003685A689D686C
:1015600022F070060A6832435A600D4B02689A42B4
:1015700008D0B2F1804F05D00A4B9A4202D00A4BF4
:101580009A4204D1496825F080031943916080F89C
:101590003D40002180F83C10084670BD022070BD1F
:1015A000002C0140000400400008004010B5040079
:1015B00003D094F83D0010B107E0012010BD0020D9
:1015C00084F83C00204600F01FF8022084F83D001B
:1015D000211D206800F0E0FD012084F8460084F819
:1015E0003E0084F83F0084F8400084F8410084F80D
:1015F000420084F8430084F8440084F8450084F8ED
:101600003D00002010BD000008B5114A01681148D6
:10161000914208D1816941F400618161806900F4DF
:101620000060009008BD0C4A9142FBD1C16941F0B5
:101630000401C161C069002200F00400009011465D
:101640001E20FFF73BFCBDE808401E20FFF728BC2A
:10165000002C0140001002400008004090F83D10AE
:10166000012901D001207047022180F83D10016856
:10167000CA6842F00102CA6000680B49884208D07B
:10168000B0F1804F05D00949884202D0084988420C
:1016900004D1816801F00701062903D0016841F0F7
:1016A0000101016000207047002C0140000400404F
:1016B0000008004070B5044690F83C000025012861
:1016C00017D0012684F83C60022084F83D00206891
:1016D000826822F0770222F47F42826008685028F4
:1016E00038D00DDC20284FD005DC90B3102811D164
:1016F0004AE0022070BD302846D040280AD13BE0A5
:1017000060282FD070280DD0B0F5805F03D0B0F5E1
:10171000005F12D0012584F83D60002084F83C0071
:10172000284670BDCB68D1E90121206800F077FD23
:101730002068816841F0770109E0CB68D1E9012197
:10174000206800F06CFD2068816841F48041816070
:10175000E1E719E0CA684968206800F015FE5021E9
:10176000206806E0CA684968206800F01EFE602113
:10177000206800F05EFDCEE7CA684968206800F086
:1017800003FE40212068F4E7226801461046F0E796
:101790002DE9F0410D46040003D094F83D0018B146
:1017A00008E00120BDE8F081002084F83C002046DC
:1017B00000F040F8022084F83D002068816844F27F
:1017C000070291438160211D206800F0E5FC22683A
:1017D00090689169166A2B68AF69034340F2033041
:1017E000814341EA0721A868EF6908434FF6FC41AD
:1017F0008843E96840EA0720014328692F6A00010D
:1018000040EA0730084369686D6926F0220646EA17
:101810000515294393602268906154F8460B0162D4
:10182000012004F81F09E0752076E0762077A07586
:101830000020B7E700B585B0002100910191029129
:101840000391026818491948B2F1804F19D0184B1A
:101850009A4214D1CA6942F00202CA61CA6902F00E
:10186000020204928A6942F004028A61896901F0E5
:1018700004010491C02100916946FFF7C9F805B041
:1018800000BDCA6942F00102CA61CA6902F00102E0
:1018900004928A6942F004028A61896901F00401B4
:1018A00004910321E7E70000001002400008014016
:1018B0000004004070B590F83E60044690F83F5038
:1018C00090F8423090F84320022021B104290ED034
:1018D000012E1BD114E0012E18D1012B16D184F852
:1018E0003E0084F8420001220021206820E0012D02
:1018F0000CD1012A0AD184F83F0084F8430014E097
:10190000012D03D1012B01D1012A01D0012070BD8D
:1019100084F83E0084F83F0084F8420084F84300D5
:1019200001220021206800F06DFC012204212068C2
:1019300000F068FC2068016841F0010101600020AE
:1019400070BD704770B50446006801694FF000052E
:10195000C943890715D4C168C943890711D4E91E51
:10196000016101202077206880698007204602D02D
:10197000FFF7E7FF04E000F0BFF8204600F051F960
:10198000257720680169C943490717D4C168C9434D
:10199000490713D46FF00401016102202077206809
:1019A000806910F4407F204602D0FFF7CAFF04E0B0
:1019B00000F0A2F8204600F034F92577206801698C
:1019C000C943090716D4C168C943090712D46FF087
:1019D00008010161042020772068C0698007204643
:1019E00002D0FFF7AEFF04E000F086F8204600F0DA
:1019F00018F9257720680169C943C90617D4C16859
:101A0000C943C90613D46FF0100101610820207783
:101A10002068C06910F4407F204602D0FFF791FF94
:101A200004E000F069F8204600F0FBF82577206814
:101A30000169C943C90708D1C168C943C90704D1AD
:101A4000891E0161204600F03BF920680169C94305
:101A5000090609D4C168C943090605D46FF080019D
:101A600001612046FFF742FD20680169C94349062C
:101A700009D4C168C943490605D46FF0400101612A
:101A8000204600F01EF920680169C94389060BD47D
:101A9000C168C943890607D46FF02001016120465F
:101AA000BDE87040FFF723BD70BD000000B585B0F4
:101AB0000021009101910291039100680B49884235
:101AC00012D10B48816941F0040181618069694646
:101AD00000F0040004904FF4407000900220019048
:101AE00003900448FEF794FF05B000BD002C0140B0
:101AF0000010024000080140704770B5044690F89D
:101B00003C0000260D4601280FD0012084F83C003F
:101B10006AB1042A1DD0082A2FD00C2A3FD00126F2
:101B2000002084F83C00304670BD022070BD206863
:101B300000F088FB2068816941F00801816120681C
:101B4000816921F004018161206881692A6911435A
:101B500011E0206800F09EFB2068816941F400617B
:101B600081612068816921F48061816120688169D7
:101B70002A6941EA02218161D2E7206800F0B6FBC0
:101B80002068C16941F00801C1612068C16921F084
:101B90000401C1612068C1692A69114311E020680C
:101BA00000F0D0FB2068C16941F40061C161206888
:101BB000C16921F48061C1612068C1692A6941EA73
:101BC0000221C161ACE710B5040003D094F83D00D8
:101BD00010B107E0012010BD002084F83C00204631
:101BE00000F01EF8022084F83D00211D206800F05E
:101BF000D3FA012084F8460084F83E0084F83F00C0
:101C000084F8400084F8410084F8420084F84300DE
:101C100084F8440084F8450084F83D00002010BD9D
:101C20007047704710B50446022249B104290ED00E
:101C3000082913D094F84100012816D0012010BDC6
:101C400094F83E000128F9D184F83E200FE094F882
:101C50003F000128F2D184F83F2008E094F84000CA
:101C60000128EBD184F8402001E084F841200122D2
:101C7000206800F0C7FA0F492068884203D1426CFF
:101C800042F4004242642068884208D0B0F1804F9C
:101C900005D00949884202D00849884204D18168A8
:101CA00001F00701062903D0016841F0010101603C
:101CB000002010BD002C014000040040000800403E
:101CC00070477047FEE70000FEB5002120480091F4
:101CD00001911E4A029102609215826001730175A2
:101CE00004254FF460220561C2614160FEF714FCD7
:101CF00008B1FEF78DFB02240120CDE9004007204A
:101D0000029069461248FEF785FB08B1FEF780FB9A
:101D10000326CDE9006469460D48FEF77BFB08B158
:101D2000FEF776FBCDE9004669460948FEF772FBEF
:101D300008B1FEF76DFB694605480195FEF76AFBA1
:101D4000002801D0FEF764FBFEBD00000024014026
:101D50002C000020094808B5416941F001014161AA
:101D60004069002200F00100009001210B20FFF7E4
:101D7000A5F8BDE808400B20FFF792B8001002401C
:101D8000F0B585B000252048009501950295039592
:101D9000816941F020018161816901F02001049194
:101DA000816941F004018161816901F004010491BC
:101DB000816941F0080181618069144F00F00800D9
:101DC0004FF4A0440490012221463846FEF710FF4C
:101DD0007E14002231463846FEF70AFF00940124A3
:101DE0000320CDE90240694601943846FEF710FE13
:101DF0000220CDE90250CDE9006469463846FEF77D
:101E000007FE05B0F0BD000000100240000C0140CC
:101E10000D4810B50B4901600C49416000214FF499
:101E200080428160C0E9031241618161C161016248
:101E3000FEF7EAFE002803D0BDE81040FEF7E8BA3E
:101E400010BD000000540040A0000020A08601004A
:101E500010B596B000240F9410941194129413941A
:101E60001C2168461494FEF7AFF9202107A8FEF75D
:101E7000ABF92D482B4901604721C0E9011440F21C
:101E8000F311C0E903148021C0E90541FFF78EFB7F
:101E900008B1FEF7BDFA4FF480500F900FA9224809
:101EA000FFF708FC08B1FEF7B3FA1F48FFF78BFEF7
:101EB00008B1FEF7ADFA139413A91B481494FFF769
:101EC00041FB08B1FEF7A4FA6020CDE900040294BA
:101ED0000394049405940022694613480694FFF77E
:101EE0000CFE08B1FEF794FA042269460E48FFF78B
:101EF00004FE08B1FEF78CFA0794089409944FF495
:101F000000500A94CDE90B4007A907480E94FFF74B
:101F1000EFFA08B1FEF77CFA0348FFF7C7FD16B0E9
:101F200010BD0000002C0140F400002010B58CB062
:101F300024216846FEF748F90024154809944FF01B
:101F400080410A94C0E900144FF6FF71C0E90241D4
:101F5000046184610320CDE900040120CDE902047D
:101F60000494CDE905400794694609480894FFF7B1
:101F70000FFC08B1FEF74CFA099409A904480A9429
:101F8000FFF7E0FA002801D0FEF742FA0CB010BDCE
:101F90003C01002010B58CB024216846FEF714F9EE
:101FA00000241648099414490A94C0E900144FF615
:101FB000FF71C0E90241046184610320CDE900049E
:101FC0000120CDE902040494CDE905400794694657
:101FD0000A480894FFF7DCFB08B1FEF719FA0994E8
:101FE00009A906480A94FFF7ADFA002801D0FEF7C8
:101FF0000FFA0CB010BD0000000400408401002066
:1020000010B586B0002417480094019402940394FC
:10201000049413490594016040F2CF21C0E90114F2
:102020006321C0E9031480218161FFF7BFFA08B181
:10203000FEF7EEF94FF48050009069460948FFF72B
:1020400039FB08B1FEF7E4F9049404A905480594A6
:10205000FFF778FA002801D0FEF7DAF906B010BDD4
:1020600000080040CC010020FEE7FEE710B5064C5A
:10207000E06800F045FB054A054B00F043FA00F02C
:10208000F3F9206110BD000008000020769A5EC4BC
:10209000C446C03F7047000070B516480068416AEA
:1020A000154CA180002141622088A2881044208024
:1020B00012480068426AE28041626088E188084410
:1020C0006080A088E188084400F008FA4FF0FF35EE
:1020D0002A4600F0BDFB00F0C7F9A06020886188A7
:1020E000084400F0FBF92A4600F0B2FB00F0BCF90E
:1020F000E06070BD3C010020080000208401002049
:102100007047FEF77DBE30B593B028216846FEF7D4
:102110005BF814210AA8FEF757F8002501200F9557
:1021200010951195010412958DE8230004904FF449
:10213000E010CDE90810022407946846FFF732F852
:1021400008B172B6FEE70AA90F2081E831004FF40A
:102150008060CDE90D0502210AA8FEF757FF08B1FE
:1021600072B6FEE74FF4004011900F940FA8FEF7EF
:10217000D7FE002801D072B6FEE713B030BD70471D
:1021800010B50448FFF7DEFBFFF786FFBDE81040FF
:10219000FFF76CBFCC010020F0B50268164B174C5E
:1021A000174D4FF08047984205D0B84203D0A04267
:1021B00001D0A84203D122F070064A683243984207
:1021C00005D0B84203D0A04201D0A84203D122F4E6
:1021D0004074CA6822434C6922F0800222430260A4
:1021E0008A68C2620A688262984201D10969016301
:1021F00001214161F0BD0000002C014000040040BD
:102200000008004010B501F01F030121046A994045
:102210008C430462016A9A401143016210BD10B5FB
:10222000846842EA032224F47F440A432243826002
:1022300010BD826822F070020A4342F007018160FB
:102240007047000030B5036A026A22F001020262A0
:102250004268846924F073050C682C4323F002055E
:102260008B682B430A4DA8420BD123F00805CB689D
:1022700022F440722B434D6923F0040315438A690D
:102280002A434260846149684163036230BD0000B3
:10229000002C014030B5026A036A23F01003036288
:1022A000436884690D6824F4E64444EA05248D6893
:1022B00022F0200242EA05120B4DA8420ED1CD6851
:1022C00022F0800242EA05124D6923F4406343EA9A
:1022D00085038D6922F0400243EA850343608461EF
:1022E00049688163026230BD002C014030B5036A49
:1022F000026A22F4807202624268C46923F40073A5
:1023000024F073050C682C438D6843EA05230C4DBB
:10231000A8420ED1CD6823F4006343EA05234D693A
:1023200022F4405242EA05128D6923F4806342EAA6
:1023300005124260C4614968C163036230BD000098
:10234000002C014030B5046A026A22F48052026215
:102350004268C3690D6823F4E64343EA05238D68A8
:1023600024F4005444EA0534064DA84204D14D69D2
:1023700022F4804242EA85124260C36149680164E6
:10238000046230BD002C014010B5036A046A24F0D9
:1023900001040462846924F0F00444EA021423F086
:1023A0000A020A438461026210BD10B5036A046A1E
:1023B00024F010040462846923F0A00324F4704420
:1023C00044EA023243EA01118261016210BDFEE774
:1023D0000907090E002804DB00F1E02080F8001452
:1023E000704700F00F0000F1E02080F8141D7047E6
:1023F000FEF70EFDFFF787FEFFF7C2FCFFF7AAFC12
:10240000FFF762FCFFF704FDFFF722FDFFF78EFDEB
:10241000FFF7C0FDFFF7F4FD00210D48FFF702FCB8
:1024200004210B48FFF7FEFB0A48FFF717F93C2190
:102430000948FFF73FFA3C210848FFF73BFA04221E
:1024400007490848FEF73CF96420FEF7CFFAF6E7A3
:10245000F4000020CC0100203C0100208401002079
:10246000000000202C00002021F00042A2F1605268
:10247000B2F5801F01F0004328BFD2F17F6C0BD969
:102480005FEA001C43EAC20242EB507018BF70477B
:1024900028BF20F001007047B2F5801FBCBF18466E
:1024A00070474FEA410C1CF5001F02D2084600F0AD
:1024B00098B970B500F0D0F800000089FFF7F6BFBA
:1024C0004FF00040A0F580007047000002494FF037
:1024D000000000F08BB900BF0000F87FB0FA80F375
:1024E00010FA03F10AD0C3F11D0303F580634FEA2C
:1024F00041504FEA035202EBD12170474FF00000E8
:1025000070470000DFF848C170B51CEA111E1EBFFD
:102510001CEA13159EEA0C0F95EA0C0F00F06F8071
:1025200081EA030423EA4C134EEAD47E21EA4C11DB
:1025300041F4801143F48013AE44A1FB024CA0FB94
:102540000365AEF17F7E361955EB0C05A1FB034CFC
:102550004CF10003A0FB021C16EB0C06654153F185
:102560000003094218BF46F0010613F4007F0BD1A7
:102570004FEA03314FEA0530340341EA155140EA8E
:1025800016506FF003020AE04FEAC3214FEAC5205C
:10259000F40241EA555140EA56506FF0020202EB54
:1025A0002E4201EB025585EACE710AD05FEA440C57
:1025B00018BF24F0004450F1000041F1000120EA6E
:1025C000D47040F2FE7C624500D270BDA84214BFB8
:1025D0004FF080444FF04044002E08BF0024BEF16D
:1025E000806FA8BFA1F1C041BDE8704080F2828039
:1025F0004FF0000001F1C04101F0004170479EEA38
:102600000C0F0CEA131518BF95EA0C0F06D04FF00B
:10261000000081EA030E0EF0004170BD00F01CF8CE
:102620008900013E00F007B800F009B84FEA430CFA
:102630005FEA5C5C08D081EA030100F05BB84FEA16
:10264000410C5FEA5C5CF6D14FF000000149704735
:102650000000FF070000F87F0EF1020E2EF0030EBF
:102660005EF8046B364205D4012A43EB030515F5E9
:10267000001F12D8012841EB010C1CF5001F0CD8DB
:102680000ED14FEAD17C15F5001F0CEB4C0C0CF170
:10269000020C08BF4CEBD37C04E04FF0080C01E0C7
:1026A0004FEAD37C0CEB4C0526FA05F606F007063C
:1026B000B6F1040C06D20EEB860CBDE870404CF06F
:1026C000010C6047DFE80CF0090B02024FF00041FB
:1026D0004FF00000A1F5002170BD194610460128F9
:1026E00051EB010418BFD4F5001484BF002001F0A1
:1026F000004170BD0808A0F500114FEA3101704794
:1027000043004FEAD30C4FEA3C0C43401FBF400745
:102710000CF1605113F0FE4F70471CF0006F03D1B5
:1027200000200CF0004170470CF0004343EA507069
:1027300010B540EACC0000F00EF800BF0000009297
:102740004FEA0001FFF7D6BF4FF000414FF0000005
:10275000A1F5002170470EF1020E2EF0030E5EF877
:10276000044B244204D44FEA4102B2F17F4F11D806
:102770004FEA4003B3F17F4F0CD80ED14FEAD07C23
:10278000B2F17F4F0CEB4C0C0CF1020C08BF4CEB80
:10279000D17C04E04FF0080C01E04FEAD17C0CEB57
:1027A0004C0324FA03F404F00704B4F1040C06D239
:1027B0000EEB840CBDE810404CF0010C6047DFE8E4
:1027C0000CF0070802024FF00040A0F5800010BD99
:1027D0000846420018BFD2F1807288BF00F0004066
:1027E00010BDFF2141EAD050C00570470CF00F0327
:1027F000092B08BF082000F059800A2B0BD0082BAA
:1028000018BF704708BF1CF0400F0AD04FF00000FF
:102810004FF0000170471CF0400F18BF4FF0004010
:1028200070471CF0100F08D020F0704300F07F427A
:1028300042EAD3014FEA4370704700F0604021F054
:102840007F4242EA000201F07F4040EA7270704726
:102850004FF0FF0C4CF4E06C1CEA11531CBF9CEAD7
:10286000030C9445C2BFDA4201EB02517047002BC2
:102870000DD0BCF1000F0FD0002A01F00041A4BF21
:1028800041F0E04141F07F614FF00000704701F0FE
:1028900000414FF00000704750EA01334FF09B0CAD
:1028A00018BF4CF0806C7FF411AE70471CF4801F91
:1028B00011D01CF4E02F03D06FEACC3149007047EF
:1028C0004FF04050EFF3008222F0704242EA0002E3
:1028D00082F3008870474FF0000070470102020346
:1028E0000405060708090A0B0C0D0E0F1010000056
:1028F00000000000000001020304060708090000B0
:102900000000010203040000282900080000002044
:102910002C00000028010008542900082C00002089
:102920004C08000044010008000000000000000006
:102930000000000000000000000000000000000097
:102940000000000001000000100000000000000076
:042950000024F4006B
:04000005080000ED02
:00000001FF
